:1000000010C017C016C015C014C013C012C011C054
:1000100010C00FC00EC00DC00CC00BC00AC009C07C
:1000200008C011241FBECFE5D1E0DEBFCDBF02D096
:10003000C3C0E6CF80E886BD16BCDE98D69ADF98AE
:10004000D79A8EE1DE9ADF9AE7E8F3E13197F1F78C
:1000500000C00000DE98DF98FFED28E231E0F150AB
:1000600020403040E1F700C00000815059F78EE198
:10007000DE9ADF9AEBE4FDE13197F1F700C0000072
:10008000DE98DF98FFE021E231E0F150204030407F
:10009000E1F700C00000815059F78EE1DE9ADF9A47
:1000A000EFE0F7E23197F1F700C00000DE98DF984B
:1000B000FFE329E131E0F15020403040E1F700C09A
:1000C0000000815059F78EE1DE9AE7E8F3E13197BD
:1000D000F1F700C00000DE98FFED28E231E0F150BA
:1000E00020403040E1F700C00000815069F78EE108
:1000F000DF9AE7E8F3E13197F1F700C00000DF98FD
:10010000FFED28E231E0F15020403040E1F700C03F
:100110000000815069F78EE1DE9AEBE4FDE1319752
:10012000F1F700C00000DE98FFE021E231E0F1507D
:1001300020403040E1F700C00000815069F78EE1B7
:10014000DF9AEBE4FDE13197F1F700C00000DF98A2
:10015000FFE021E231E0F15020403040E1F700C003
:100160000000815069F78EE1DE9AEFE0F7E2319707
:10017000F1F700C00000DE98FFE329E131E0F15023
:1001800020403040E1F700C00000815069F78EE167
:10019000DF9AEFE0F7E23197F1F700C00000DF9857
:1001A000FFE329E131E0F15020403040E1F700C0A9
:0C01B0000000815069F745CFF894FFCFA4
:00000001FF
