:100000000EC01DC01CC01BC01AC019C018C017C02C
:1000100016C015C014C013C012C011C010C01124E6
:100020001FBECFE5D1E0DEBFCDBF10E0A0E6B0E05F
:1000300001C01D92A536B107E1F792D026C1E0CFED
:10004000FC018081262F20958223808387EC90E01D
:100050000197F1F700C00000842F992787FD909544
:1000600080FF03C03081362B02C0308132233083C1
:10007000A7ECB0E01197F1F700C0000081FF03C0CA
:100080003081362B02C0308132233083A7ECB0E0C0
:100090001197F1F700C0000082FF03C03081362BBA
:1000A00002C0308132233083A7ECB0E01197F1F722
:1000B00000C0000083FF03C03081362B02C03081B6
:1000C00032233083A7ECB0E01197F1F700C00000B5
:1000D00084FF03C03081362B02C03081322330834D
:1000E000A7ECB0E01197F1F700C0000085FF03C056
:1000F0003081362B02C0308132233083A7ECB0E050
:100100001197F1F700C0000086FF03C08081862BA5
:1001100002C080818223808387EC90E00197F1F711
:1001200000C0000047FF03C08081862B02C0808191
:1001300082238083A7ECB0E01197F1F700C00000A4
:100140008081862B808387EC90E00197F1F700C0D7
:100150000000A7ECB0E01197F1F700C0000008958F
:1001600080E886BD16BCC29ABA9AC39ABB9A82E04E
:1001700087B987E886B910926300109262001092E6
:100180006100109260001092640020E030E080E096
:1001900090E060E011C0C398369A3699FECF44B122
:1001A00055B1240F351FC39A369A3699FECF44B104
:1001B00055B1840F951F6F5F643668F33093630009
:1001C00020936200909361008093600060936400CC
:1001D00088E390E064E041E033DF8FE19EE4019743
:1001E000F1F700C0000088E390E064E042E028DF1F
:1001F0008FE19EE40197F1F700C0000088E390E0F2
:1002000064E043E01DDF8FE19EE40197F1F700C059
:10021000000088E390E064E044E012DF8FE19EE4B8
:100220000197F1F700C0000088E390E064E040919E
:10023000620006DF8FE19EE40197F1F700C0000045
:100240004091630088E390E064E0FADE8FE19EE491
:100250000197F1F700C0000088E390E064E040916E
:100260006000EEDE8FE19EE40197F1F700C0000030
:100270004091610088E390E064E0E2DE8FE19EE47B
:0E0280000197F1F700C0000076CFF894FFCF91
:00000001FF
