:100000000EC028C027C026C025C024C023C022C0DF
:1000100021C020C01FC01EC01DC01CC01BC0112499
:100020001FBECFE5D1E0DEBFCDBF10E0A0E6B0E05F
:10003000ECE1F3E002C005900D92A238B107D9F7C8
:1000400020E0A2E8B0E001C01D92A03AB207E1F7BB
:1000500025D162C1D5CFDC01FA0110828C918623B3
:10006000E9F788E88A95F1F78BEC90E00197F1F7D2
:1000700000C000008C91862319F08081816080830C
:100080008BEC90E00197F1F700C000008C91862383
:1000900019F08081826080838BEC90E00197F1F70A
:1000A00000C000008C91862319F0808184608083D9
:1000B0008BEC90E00197F1F700C000008C91862353
:1000C00019F08081886080838BEC90E00197F1F7D4
:1000D00000C000008C91862319F0808180618083AC
:1000E0008BEC90E00197F1F700C000008C91862323
:1000F00019F08081806280838BEC90E00197F1F7AA
:1001000000C000008C91862319F080818064808378
:100110008BEC90E00197F1F700C000008C91682310
:1001200019F08081806880838BEC90E00197F1F773
:1001300000C0000098E89A95F1F70895FC019081BD
:10014000862F809598239083ABECB0E01197F1F760
:1001500000C00000908140FF02C0962B01C0982390
:100160009083ABECB0E01197F1F700C000009081F4
:1001700041FF02C0962B01C098239083ABECB0E006
:100180001197F1F700C00000908142FF02C0962B4A
:1001900001C098239083ABECB0E01197F1F700C059
:1001A0000000908143FF02C0962B01C098239083EA
:1001B000ABECB0E01197F1F700C00000908144FF74
:1001C00002C0962B01C098239083ABECB0E011974E
:1001D000F1F700C00000908145FF02C0962B01C0DE
:1001E00098239083ABECB0E01197F1F700C00000CA
:1001F000908146FF02C0962B01C098239083ABEC00
:10020000B0E01197F1F700C0000047FF03C0808104
:10021000862B02C09081892380838BEC90E001972C
:10022000F1F700C000008081682B6083ABECB0E088
:100230001197F1F700C000008BEC90E00197F1F707
:1002400000C000000895FF920F931F93CF93DF9398
:10025000EC01F62E8A0110929F0010929E00E09110
:100260009E00F0919F00E00FF11F40816F2DCE01A5
:1002700065DF80919E0090919F00019690939F0072
:1002800080939E00F801E80FF91F80818111E7CF6C
:10029000DF91CF911F910F91FF90089580E886BD67
:1002A00016BCC19AB99A10929D0010929C004BE91D
:1002B00050E064E086E390E0CEDE40E650E062E0AD
:1002C00088E390E0C0DF80919C0090919D009C01AC
:1002D0002F5F3F4F30939D0020939C00FC01EE5711
:1002E000FF4F40919B0040832831310521F410924B
:1002F0009D0010929C0042E850E062E088E390E0AC
:10030000A2DF42E262E088E390E018DF4AE062E0C8
:0C03100088E390E013DFCBCFF894FFCF20
:10031C0068656C6C6F2E667464692E34352E65635B
:10032C00686F2E633A20796F75207479706564203C
:02033C0022009D
:00000001FF
