:100000000C9456000C9460000C9460000C946000FA
:100010000C9460000C9460000C9460000C946000E0
:100020000C9460000C9460000C9460000C946000D0
:100030000C9460000C9460000C9460000C946000C0
:100040000C9460000C9460000C9460000C946000B0
:100050000C9460000C9460000C9460000C946000A0
:100060000C9460000C9460000C9460000C94600090
:100070000C9460000C9460000C9460000C94600080
:100080000C9460000C9460000C9460000C94600070
:100090000C9460000C9460000C9460000C94600060
:1000A0000C9460000C9460000C94600011241FBE3E
:1000B000CFEFCDBFD7E2DEBF0E9462000C94850077
:1000C0000C94000082E0809350008091510081FFE9
:1000D000FCCF88ED84BF81E08093400080E180BB4D
:1000E00081BB2FEF33EC99E0215030409040E1F795
:1000F00000C0000011BA2FEF33EC99E021503040DE
:0E0100009040E1F700C00000EBCFF894FFCF75
:00000001FF
