:1000000021C03BC03AC039C038C037C036C035C047
:1000100034C033C032C031C030C02FC02EC02DC05C
:100020002CC068656C6C6F2E667464692E34342E37
:100030006563686F2E633A20796F752074797065F7
:100040006420220011241FBECFE5D1E0DEBFCDBF6A
:1000500010E0A0E6B0E0E2E1F3E002C005900D920E
:10006000A036B107D9F710E0A0E6B0E001C01D92BC
:10007000A138B107E1F715D14AC1C2CFDC01FA01BD
:1000800010828C918623E9F78CE18A95F1F788E359
:100090008A95F1F78C91862319F081E0808301C065
:1000A000108288E38A95F1F78C91862319F080817C
:1000B0008260808388E38A95F1F78C91862319F01A
:1000C00080818460808388E38A95F1F78C91862310
:1000D00019F080818860808388E38A95F1F78C919C
:1000E000862319F080818061808388E38A95F1F707
:1000F0008C91862319F080818062808388E38A95C1
:10010000F1F78C91862319F080818064808388E3E5
:100110008A95F1F78C91862319F08081806880831D
:1001200088E38A95F1F78CE18A95F1F70895FC014F
:100130008081962F90958923808388E38A95F1F7B3
:10014000242F332727FD309520FF03C08081862B85
:1001500002C080818923808388E38A95F1F721FF9B
:1001600003C08081862B02C080818923808388E33D
:100170008A95F1F722FF03C08081862B02C080811F
:100180008923808388E38A95F1F723FF03C0808168
:10019000862B02C080818923808388E38A95F1F7CA
:1001A00024FF03C08081862B02C080818923808345
:1001B00088E38A95F1F725FF03C08081862B02C072
:1001C00080818923808388E38A95F1F726FF03C025
:1001D0008081862B02C080818923808388E38A9571
:1001E000F1F747FF04C08081862B808303C08081A4
:1001F0009823908398E3892F8A95F1F78081862B45
:100200008083892F8A95F1F79A95F1F70895CF9217
:10021000DF92EF92FF920F931F93CF93DF936C01C6
:10022000062FEA01EE24FF24FE011491C601602F7F
:10023000412F7DDF0894E11CF11C21961123A1F7C9
:1002400010928000F0927F00E0927E00DF91CF91CB
:100250001F910F91FF90EF90DF90CF900895DF9264
:10026000EF92FF920F931F93CF93DF937C01D62ED3
:10027000EA0100E010E0C7016D2D488158DF0F5FF3
:100280001F4F898121968823B1F710937D00009339
:100290007C00DF91CF911F910F91FF90EF90DF9045
:1002A0000895CF93DF9380E886BD16BCD99AD19A82
:1002B0001092610010926000C0E0D0E089E390E00D
:1002C00061E04BE750E0DADE8BE390E062E042E28F
:1002D00050E09DDFFE01EE59FF4F80917B0080834F
:1002E0002196C831D10511F4C0E0D0E08BE390E055
:1002F00062E042E650E0B3DF8BE390E062E042E28E
:1003000016DF8BE390E062E04AE011DFD7CFF8948C
:02031000FFCF1D
:00000001FF
