:100000000C9434000C943E000C943E000C943E0082
:100010000C943E000C943E000C943E000C943E0068
:100020000C943E000C943E000C943E000C943E0058
:100030000C943E000C943E000C943E000C943E0048
:100040000C943E000C943E000C943E000C943E0038
:100050000C943E000C943E000C943E000C943E0028
:100060000C943E000C943E0011241FBECFEFD8E04C
:10007000DEBFCDBF0E9440000C945C000C940000D9
:1000800080E880936100109261002D98259A2D9A46
:100090008FE79AE1A6E081509040A040E1F700C0D0
:1000A00000002D988FE79AE1A6E081509040A04093
:0C00B000E1F700C00000EBCFF894FFCF98
:00000001FF
