:1000000026C040C02EC13EC03DC03CC03BC03AC02F
:1000100039C038C037C036C035C034C033C032C034
:1000200031C068656C6C6F2E667464692E34342E32
:100030006563686F2E696E746572727570742E6375
:100040003A20796F7520747970656420000011245E
:100050001FBECFE5D1E0DEBFCDBF10E0A0E6B0E02F
:10006000EEEEF2E002C005900D92A036B107D9F78E
:1000700010E0A0E6B0E001C01D92A436B107E1F7A0
:1000800029D133C1BDCFDC01FA0110828C918623C6
:10009000E9F78CE18A95F1F788E38A95F1F78C917D
:1000A000862319F081E0808301C0108288E38A955D
:1000B000F1F78C91862319F080818260808388E338
:1000C0008A95F1F78C91862319F080818460808372
:1000D00088E38A95F1F78C91862319F080818860F6
:1000E000808388E38A95F1F78C91862319F08081CB
:1000F0008061808388E38A95F1F78C91862319F0DB
:1001000080818062808388E38A95F1F78C918623D1
:1001100019F080818064808388E38A95F1F78C915F
:10012000862319F080818068808388E38A95F1F7BF
:100130008CE18A95F1F70895FC018081962F9095C6
:100140008923808388E38A95F1F7242F332727FDBD
:10015000309520FF03C08081862B02C080818923D7
:10016000808388E38A95F1F721FF03C08081862B85
:1001700002C080818923808388E38A95F1F722FF7A
:1001800003C08081862B02C080818923808388E31D
:100190008A95F1F723FF03C08081862B02C08081FE
:1001A0008923808388E38A95F1F724FF03C0808147
:1001B000862B02C080818923808388E38A95F1F7AA
:1001C00025FF03C08081862B02C080818923808324
:1001D00088E38A95F1F726FF03C08081862B02C051
:1001E00080818923808388E38A95F1F747FF04C0E3
:1001F0008081862B808303C080819823908398E33D
:10020000892F8A95F1F78081862B80839A95F1F763
:100210000895CF92DF92EF92FF920F931F93CF93A7
:10022000DF936C01062FEA01EE24FF24FE011491F6
:10023000C601602F412F80DF0894E11CF11C21963C
:100240001123A1F710926300F0926200E092610026
:10025000DF91CF911F910F91FF90EF90DF90CF90A2
:1002600008951F920F920FB60F9211242F933F9370
:100270004F935F936F937F938F939F93AF93BF93AE
:10028000EF93FF9389E390E061E040E650E0FBDE0E
:100290008BE390E062E042E250E0BBDF8BE390E072
:1002A00062E04091600048DF8BE390E062E04AE06A
:1002B00043DFFF91EF91BF91AF919F918F917F911C
:1002C0006F915F914F913F912F910F900FBE0F90C3
:1002D0001F90189580E886BD16BCD99AD19A8BB725
:0E02E00080618BBF909A7894FFCFF894FFCF87
:00000001FF
