:100000000C9456000C9473000C9473000C947300C1
:100010000C9473000C9473000C9473000C94730094
:100020000C9473000C9473000C9473000C94730084
:100030000C9473000C9473000C9473000C94730074
:100040000C9473000C9473000C9473000C94730064
:100050000C9473000C9473000C9473000C94730054
:100060000C9473000C9473000C9473000C94730044
:100070000C9473000C9473000C9473000C94730034
:100080000C9473000C9473000C9473000C94730024
:100090000C9473000C9473000C9473000C94730014
:1000A0000C9473000C9473000C94730011241FBE05
:1000B000CFEFCDBFD7E2DEBF10E2A0E0B0E2E8E8CC
:1000C000F3E002C005900D92A432B107D9F720E207
:1000D000A4E2B0E201C01D92A234B207E1F70E948F
:1000E00075010C94C2010C940000DC01FA0110822D
:1000F0008C918623E9F78DE28A95F1F700008AE575
:100100008A95F1F700C08C91862319F08081816077
:1001100080838AE58A95F1F700C08C91862319F0D7
:100120008081826080838AE58A95F1F700C08C9196
:10013000862319F08081846080838AE58A95F1F7AF
:1001400000C08C91862319F08081886080838AE5C5
:100150008A95F1F700C08C91862319F08081806127
:1001600080838AE58A95F1F700C08C91862319F087
:100170008081806280838AE58A95F1F700C08C9146
:10018000862319F08081806480838AE58A95F1F75F
:1001900000C08C91862319F08081806880838AE575
:1001A0008A95F1F700C08DE28A95F1F70000089575
:1001B000FC019081862F8095982390839AE59A95EB
:1001C000F1F700C0908140FF02C0962B01C0982338
:1001D00090839AE59A95F1F700C0908141FF02C0A3
:1001E000962B01C0982390839AE59A95F1F700C069
:1001F000908142FF02C0962B01C0982390839AE51C
:100200009A95F1F700C0908143FF02C0962B01C080
:10021000982390839AE59A95F1F700C0908144FF66
:1002200002C0962B01C0982390839AE59A95F1F726
:1002300000C0908145FF02C0962B01C09823908397
:100240009AE59A95F1F700C0908146FF02C0962B7F
:1002500001C0982390839AE59A95F1F700C047FF73
:1002600004C08081862B808303C090819823908373
:100270008AE58A95F1F700C08081862B80839AE514
:100280009A95F1F700C08AE58A95F1F700C00895C4
:10029000FF920F931F93CF93DF938C01F62EEA0109
:1002A0001092402010924120E0914020F091412096
:1002B000EC0FFD1F40816F2DC8010E94D8002091D6
:1002C0004020309141202F5F3F4F209340203093BA
:1002D0004120FE01E20FF31F80818111E5CFDF9104
:1002E000CF911F910F91FF90089582E0809350006D
:1002F0008091510081FFFCCF88ED84BF81E0809325
:100300004000CF9AC79A849A10923E2010923F20C4
:100310004DE350E260E48AE190E00E9475008C9A1F
:1003200040E050E260E889E190E00E9448012091BD
:100330003E2030913F20C901019680933E2090934A
:100340003F20F901EC5DFF4D40913D2040834897EF
:1003500021F410923E2010923F2044E250E260E8E7
:1003600089E190E00E94480142E260E889E190E082
:100370000E94D8004AE060E889E190E00E94D8003D
:080380008C98C6CFF894FFCF62
:1003880068656C6C6F2E667464692E313645352E3F
:100398006563686F2E633A20796F7520747970658C
:0403A80064202200AB
:00000001FF
