:1000000010C02AC029C028C027C026C025C024C0CF
:1000100023C022C021C020C01FC01EC01DC01CC0E4
:100020001BC011241FBECFE5D1E0DEBFCDBF10E065
:10003000A0E6B0E0E2E8F3E002C005900D92AA3934
:10004000B107D9F720E0AAE9B0E001C01D92AC39B0
:10005000B207E1F7FFD093C1D3CFDC01FA011082E0
:100060008C918623E9F78CE18A95F1F7000088E30B
:100070008A95F1F700C08C91862319F08081816008
:10008000808388E38A95F1F700C08C91862319F06C
:1000900080818260808388E38A95F1F700C08C912B
:1000A000862319F080818460808388E38A95F1F744
:1000B00000C08C91862319F080818860808388E35A
:1000C0008A95F1F700C08C91862319F080818061B8
:1000D000808388E38A95F1F700C08C91862319F01C
:1000E00080818062808388E38A95F1F700C08C91DB
:1000F000862319F080818064808388E38A95F1F7F4
:1001000000C08C91682319F080818068808388E327
:100110008A95F1F700C08CE18A95F1F70000089507
:10012000FC019081862F80959823908398E39A957F
:10013000F1F700C0908140FF02C0962B01C09823C8
:10014000908398E39A95F1F700C0908141FF02C037
:10015000962B01C09823908398E39A95F1F700C0FD
:10016000908142FF02C0962B01C09823908398E3B0
:100170009A95F1F700C0908143FF02C0962B01C011
:100180009823908398E39A95F1F700C0908144FFFB
:1001900002C0962B01C09823908398E39A95F1F7BB
:1001A00000C0908145FF02C0962B01C09823908328
:1001B00098E39A95F1F700C0908146FF02C0962B14
:1001C00001C09823908398E39A95F1F700C047FF08
:1001D00003C08081862B02C090818923808388E3BD
:1001E0008A95F1F700C08081682B608398E39A9527
:1001F000F1F700C088E38A95F1F700C00895FF92F7
:100200000F931F93CF93DF93EC01F62E8A01109288
:100210009B0010929A00E0919A00F0919B00E00FF1
:10022000F11F40816F2DCE017BDF80919A0090916C
:100230009B00019690939B0080939A00F801E80F31
:10024000F91F80818111E7CFDF91CF911F910F912D
:10025000FF900895CF93DF9300D000D0CDB7DEB7E5
:1002600080E886BD16BCD99AD19AD0988FBD82E11C
:100270008EBD88EA91E695BD84BD82EE94E09BBD7B
:100280008ABDDE98D69A40E650E062E08BE390E0CB
:10029000B6DFAE014F5F5F4F61E089E390E0DDDEE6
:1002A000498162E08BE390E03BDFAE014E5F5F4F40
:1002B00061E089E390E0D1DE4A8162E08BE390E087
:1002C0002FDFAE014D5F5F4F61E089E390E0C5DE57
:1002D0004B8162E08BE390E023DFAE014C5F5F4F28
:1002E00061E089E390E0B9DE4C8162E08BE390E06D
:1002F00017DF4AE062E08BE390E012DFCE01019667
:1003000017D09C01225E3440233E344018F048E769
:1003100050E004C09BBD8ABD4FE850E062E08BE333
:1003200090E06DDF4AE062E08BE390E0F9DEABCF76
:10033000FC0188279927E89421912032E9F329309C
:1003400010F02E30C8F32B3239F02D3231F468948E
:1003500003C00BD0820F911D219120532A30C8F386
:100360001EF4909581959F4F0895BC01880F991FA9
:10037000880F991F860F971F880F991F0895F8946B
:02038000FFCFAD
:1003820050574D2076616C75652028313235302DFD
:1003920032353030293F20002020206F7574206FC5
:1003A200662072616E676520312D32206D730020E8
:0A03B200202075706461746564001A
:00000001FF
