:100000000EC028C027C026C025C024C023C022C0DF
:1000100021C020C01FC01EC01DC01CC01BC0112499
:100020001FBECFE5D1E0DEBFCDBF10E0A0E6B0E05F
:10003000E4E9F3E002C005900D92A839B107D9F7C1
:1000400020E0A8E9B0E001C01D92AA39B207E1F7AB
:1000500025D19EC1D5CFDC01FA0110828C91862377
:10006000E9F788E88A95F1F78BEC90E00197F1F7D2
:1000700000C000008C91862319F08081816080830C
:100080008BEC90E00197F1F700C000008C91862383
:1000900019F08081826080838BEC90E00197F1F70A
:1000A00000C000008C91862319F0808184608083D9
:1000B0008BEC90E00197F1F700C000008C91862353
:1000C00019F08081886080838BEC90E00197F1F7D4
:1000D00000C000008C91862319F0808180618083AC
:1000E0008BEC90E00197F1F700C000008C91862323
:1000F00019F08081806280838BEC90E00197F1F7AA
:1001000000C000008C91862319F080818064808378
:100110008BEC90E00197F1F700C000008C91682310
:1001200019F08081806880838BEC90E00197F1F773
:1001300000C0000098E89A95F1F70895FC019081BD
:10014000862F809598239083ABECB0E01197F1F760
:1001500000C00000908140FF02C0962B01C0982390
:100160009083ABECB0E01197F1F700C000009081F4
:1001700041FF02C0962B01C098239083ABECB0E006
:100180001197F1F700C00000908142FF02C0962B4A
:1001900001C098239083ABECB0E01197F1F700C059
:1001A0000000908143FF02C0962B01C098239083EA
:1001B000ABECB0E01197F1F700C00000908144FF74
:1001C00002C0962B01C098239083ABECB0E011974E
:1001D000F1F700C00000908145FF02C0962B01C0DE
:1001E00098239083ABECB0E01197F1F700C00000CA
:1001F000908146FF02C0962B01C098239083ABEC00
:10020000B0E01197F1F700C0000047FF03C0808104
:10021000862B02C09081892380838BEC90E001972C
:10022000F1F700C000008081682B6083ABECB0E088
:100230001197F1F700C000008BEC90E00197F1F707
:1002400000C000000895FF920F931F93CF93DF9398
:10025000EC01F62E8A011092990010929800E0911C
:100260009800F0919900E00FF11F40816F2DCE01B1
:1002700065DF809198009091990001969093990084
:1002800080939800F801E80FF91F80818111E7CF72
:10029000DF91CF911F910F91FF900895CF93DF933E
:1002A00000D0CDB7DEB780E886BD16BCC29ABA9A38
:1002B000BB988BE080BF80E68CBD89E98DBD8FE067
:1002C0008BBD87E08BBD85E08BBDC498BC9A40E6B2
:1002D00050E064E088E390E0B6DFAE014F5F5F4F2F
:1002E00068E086E390E0B7DE498164E088E390E06F
:1002F00025DFAE014E5F5F4F68E086E390E0ABDE46
:100300004A8164E088E390E019DF4AE064E088E332
:1003100090E014DFCE01019614D09BEF980F9B3034
:1003200018F044E750E003C08BBD4CE850E064E0B7
:1003300088E390E088DF4AE064E088E390E0FEDE56
:10034000C6CFFC0188279927E89421912032E9F350
:10035000293010F02E30C8F32B3239F02D3231F421
:10036000689403C00BD0820F911D219120532A3035
:10037000C8F31EF4909581959F4F0895BC01880F96
:10038000991F880F991F860F971F880F991F08952F
:04039000F894FFCF0F
:1003940050574D2076616C7565202830352D3135E8
:1003A400293F20002020206F7574206F6620726121
:1003B4006E6765202E372D32206D73002020207546
:0803C4007064617465640000BF
:00000001FF
