:100000000C9434000C9451000C9451000C94510049
:100010000C9451000C9451000C9451000C9451001C
:100020000C9451000C9451000C9451000C9451000C
:100030000C9451000C9451000C9451000C945100FC
:100040000C9451000C9451000C9451000C945100EC
:100050000C9451000C9451000C9451000C945100DC
:100060000C9451000C94510011241FBECFEFD4E02A
:10007000DEBFCDBF11E0A0E0B1E0EEEDF0E002C0E8
:1000800005900D92A030B107D9F711E0A0E0B1E0E2
:1000900001C01D92A030B107E1F70E9453000C94FB
:1000A0006D000C94000080E8809361001092610064
:1000B0002D98259A28EC30E02D9A88EE93E0F901EE
:1000C0003197F1F70197D9F72D9888EE93E0F90170
:0E00D0003197F1F70197D9F7EFCFF894FFCFF2
:00000001FF
