:1000000015C52FC52EC52DC52CC52BC52AC529C57F
:1000100028C527C526C525C524C523C522C500007A
:10002000000000000000000000000000191900009E
:10003000000000000000000000000000031B1F0380
:10004000031F0F030300000C18187F191F0F000077
:10005000010100000E1111110E0000070F1C1819EC
:100060001F1E1F1300000000000000000000000021
:1000700000073F7840000000000040783F07000084
:10008000000000000000010000000000000101016C
:100090000F0F01010100000000407C3C0000000047
:1000A00000000303030303000000000000001C1C09
:1000B000000000000020381E0701000000000003BF
:1000C0000F1C18181C0F0700001818181F1F1818ED
:1000D000180000181C1E1B1918181800000C1818FE
:1000E0001818190F0F000003030303031F1F030059
:1000F000000C181818181C0F070000070F1C181800
:100100001C0F07000000101C0F0300000000000F70
:100110000F181818180F0F0000000C1919191C0FD0
:100120000300000000001C1C000000000000004054
:100130007C3C0000000000010103020606040C00E4
:1001400000060606060606060600000C0406060261
:10015000030101000000001B1B0000000000071F3E
:10016000387367666677270000181F0F03030F1F99
:100170001800001F1F181818181F0F0000030F0C7D
:10018000181818180C00001F1F1818180C0F03005F
:10019000001F1F18181818181800001F1F00000053
:1001A0000000000000030F0C1819191F0F00001F9A
:1001B0001F000000001F1F00000018181F1F181844
:1001C0000000000C18181818180F0F00001F1F004F
:1001D00000030F1E1800001F1F1818181818180009
:1001E000001F1F000101001F1F00001F1F00000350
:1001F0001E1F1F0000030F1C18181C0F0300001FF8
:100200001F0000000000000000030F1C18183C6FC6
:100210000700001F1F000001031F1E10000C18180C
:100220001818190F0F00000000001F1F0000000029
:1002300000070F1C18181C0F07000000001F1F1FCD
:100240001F000000001F1F1E01011E1F1F000010C5
:100250001C1F03031F1C1000000000001F1F0000D4
:100260000000001C1E1F1B18181818000000007F3B
:100270007F40400000000000000000030E38200016
:10028000000040407F7F00000000000000000000F0
:10029000000000000000000000000000000000005E
:1002A0000000000000000000000E1F1B19190D1FA8
:1002B0001F00001F1F0C18181C0F070000070F1C41
:1002C000181818180C0000070F1C18180C1F1F0016
:1002D00000070F1D191919190D000000001F1F003C
:1002E0000000000000076FDCD8D8CCFF7F00001FA3
:1002F0001F000000001F1F00001818181F1F1818EB
:10030000180000C0C0C0FF7F00000000001F1F01D8
:1003100003071E1810000000000F1F181818000017
:10032000001F1F001F1F001F1F00001F1F000000D5
:10033000001F1F0000070F1C18181C0F070000FFEC
:10034000FF0C18181C0F070000070F1C18180CFFD3
:10035000FF0000001F1F000000000000000C191922
:1003600019191B1F0E000000000F1F18181800009D
:10037000000F1F1818180C1F1F000000010F1E1E71
:100380000F01000000071F1E03031E1F07000010BF
:10039000181E07071E1810000000C0C3FF3F0F0102
:1003A000000000181C1E1B1918181800000001017D
:1003B0007EFE8080000000000000FFFF00000000C3
:1003C00000008080FE7E01010000000100000001AD
:1003D000010100000000000000000000000000001B
:1003E000000000000000FEFE0000000000001E1ED5
:1003F00000001E1E00000030B0F83E32F0FE3E301D
:100400000070F8D8FE98980000001C22A2A29C4020
:10041000402020000000DC7EE6C6860C80800000C4
:1004200000001E1E00000000000000E0FC1E020094
:1004300000000000021EFCE00000000000487830D0
:10044000FE307848000000808080F0F080808000DE
:10045000000000000000000000000000000000009C
:10046000000000000000000000000000000000008C
:100470000000C0F03C0E020000F0FC0EC6C60EFCF0
:10048000F80000000C06FEFE00000000000C06064E
:100490000686C67C3800000C06C6C6C6C6FC3800F8
:1004A0000080C070180EFEFE000000FE7E666666CC
:1004B000E6C6800000F0FCCE6666E6CC8000000652
:1004C000060606E6FE3E0E000038FCC6C6C6C6FCA2
:1004D00038000078FCCE8686CEFCF80000000000D4
:1004E000E0E00000000000000000E0E0000000008C
:1004F000008080C04060602030000060606060600C
:1005000060606000003020606040C0808000000CAF
:100510000686C6667E1C0000E0F0389CCCCCDCF879
:10052000F0000000C0FC3E3EFCC0000000FEFEC625
:10053000C6C6C6FC3C0000F0FC0C060606060C0015
:1005400000FEFE0606060CFCF00000FEFEC6C6C657
:10055000C6C6060000FEFEC6C6C6C6C6060000F039
:10056000FC0C068686868C0000FEFEC0C0C0C0FE65
:10057000FE0000000606FEFE060600000000000069
:10058000060606FEFE0000FEFEE0F0FC0E0602007F
:1005900000FEFE0000000000000000FEFE3EF0F045
:1005A0003EFEFE0000FEFE1EF0C000FEFE0000F05B
:1005B000FC0E06060EFCF00000FEFEC6C6C6C67C9B
:1005C0007C0000F0FC0E06060EFCF00000FEFEC6ED
:1005D000C6C6C6FC3C0000387CE6C6C6C68C000019
:1005E00000060606FEFE0606060000FEFE000000EF
:1005F00000FEFE000006FEFC0000FCFE06001EFEE3
:10060000E000F0F000E0FE1E00020E3EF8F83E0EA4
:100610000200020E3E78E0E0783E0E0200060686FA
:10062000C6F67E1E0E00000000FEFE020200000064
:1006300000020E38E0800000000000000202FEFE12
:100640000000000010181C0E060E1C181000000000
:10065000000000000000000000000103060400008C
:10066000000000006030B0B0B0F0E00000FEFE60BE
:10067000303070E0C00000C0E070303030306000DA
:1006800000C0E070303060FEFE0000C0E0B0B0B0EE
:10069000B0E0C000003030FCFE363636000000C04E
:1006A000E070303060F0F00000FEFE60303030F07E
:1006B000E00000003030F7F70000000000003030AC
:1006C000F7F70000000000FEFE80E0703010000030
:1006D000000606FEFE000000000000F0F030F0E032
:1006E00030F0E00000F0F060303030F0E00000C0AA
:1006F000E070303070E0C00000F0F060303070E04A
:10070000C00000C0E070303060F0F0000000F0F099
:1007100060303030300000E0F0B0B0B0B030600099
:10072000003030FCFC303030000000F0F000000001
:1007300000F0F0000030F0E00000E0F0300070F079
:100740000000C0C00000F070001030F0C0C0F030F9
:1007500010000010F0F08000F0F030000030303079
:1007600030B0F070300000000000FCFE020200001B
:1007700000000000FEFE0000000000000202FEFC7F
:10078000000000000080C0C0C0808080C000000069
:10079000000000000000000000000000DFDF00009B
:1007A0000000070007000020E43EE77C2704004C1F
:1007B0009AFF9A7000272517E8A8E4000070F79FB9
:1007C000F1C0F0000000070000000000187EC30028
:1007D000000000C37E18000000120C3F0C12000045
:1007E00010107C10100000807030000000000030FD
:1007F000303000000000C0C00000000000C038061B
:100800000100007EFF8189FF7E008181FFFF8080E3
:100810000081C1A1998F860081898989F77600308E
:100820002C26FFFF20008F8F8989F971007CFF8BB8
:1008300089F970000181F17D1F030076F78989F73E
:1008400076000E9F91D1FF3E0000CCCC000000004E
:1008500000CCCC000000003030784848CC0028287C
:100860002828282800CC48487830300002D9D707FB
:1008700000007C82394545FE0000C0FC2F2FFCC0E3
:1008800000FFFF8989F776003C7EC381814200FF2B
:10089000FF8181FF3C00FFFF8989898100FFFF09FB
:1008A000090901003C7EC391F1F200FFFF0808FF37
:1008B000FF008181FFFF81810040808181FF7F00F7
:1008C000FFFF183EE3C100FFFF8080808000FFFE35
:1008D0001C1CFEFF00FFFF0E70FFFF007EFF8181EA
:1008E000FF7E00FFFF11111F0E007EFF8181FF7E42
:1008F00000FFFF11116FCE804E8F9999F1720001A8
:1009000001FFFF0101007FFF8080FF7F00033FF0B8
:10091000F03F030FFFF00CF0FF0F0081E73C3CE7D6
:100920008100010FFCFC0F0100C1E1B98D8783003C
:1009300000FFFF81000000010638C00000000081B8
:10094000FFFF00000406030306040080808080800F
:100950008080000103020000000060F49494FCF821
:1009600000FFFF8888F8700078FCCC8484840070D5
:10097000F88888FFFF0078FC94949C980008FEFF9C
:10098000090900001CBEA2A2FE7E00FFFF0808F8B5
:10099000F0008888FBFB8080008888FB7B000000DB
:1009A000FFFF107CC48001017FFF80800000FCFC01
:1009B00004FC04FC00FCFC0404FCF80078FC8484C7
:1009C000FC7800FEFE22223E1C001C3E2222FEFE7F
:1009D0000000FCFC04040400589CB4B4E468040463
:1009E000FFFF848400007CFC8080FCFC000C7CE029
:1009F000E07C0C0CFCE010E0FC0C0084CC7878CCA3
:100A00008400828EF8380E0200C4E4A4949C8C000A
:100A10001010EFEF8181000000FF000000008181D5
:100A2000EFEF1010001010102020200011241FBE26
:100A3000CFE5D1E0DEBFCDBF10E0A0E6B0E0E0E75B
:100A4000FEE002C005900D92A239B107D9F720E06F
:100A5000A2E9B0E001C01D92AF39B207E1F787D13A
:100A600005C2CECABC9AC4980895BB9AC39808958B
:100A7000811101C0F7CFBC98B49BFECF08958111BE
:100A800001C0F3CFBB98089581E0F9DF81E0F0CF9A
:100A9000CF93DF93D82FC8E0D7FD02C0E6DF02C0B6
:100AA00081E0EDDF81E0E4DF8DE08A95F1F7000081
:100AB000D9DF8DE08A95F1F70000DD0FC15061F7B5
:100AC00081E0DDDF81E0D4DF8DE08A95F1F7000081
:100AD000B39907C0C7DF8DE08A95F1F7000080E089
:100AE00001C081E0DF91CF910895EF92FF920F93C3
:100AF0001F93CF937C01C62F142FB7DF8DE08A950B
:100B0000F1F70000AFDFEDE0EA95F1F70000812F8B
:100B1000880FBEDF81111DC08701EC0EF11C0E1580
:100B20001F0541F0F80181918F01B2DFC82F8823A2
:100B3000B1F301C0C0E081E09BDFFDE0FA95F1F781
:100B4000000081E09CDF8DE08A95F1F700008C2F9A
:100B500001C081E0CF911F910F91FF90EF90089518
:100B6000EDE9F0E0108281834CE362E0CF01BDCF7C
:100B7000EAE9F0E01082818362834CE363E0CF0115
:100B8000B4CFE8E9F0E090E4908381834CE362E045
:100B9000CF01ABCF1F93CF93DF93182F862FEA019E
:100BA00062956F70605F8F70E3DF80EB810FD8DF3D
:100BB0001092970080919700FE01E80FF11D80814F
:100BC000882311F180528093960010929500209115
:100BD0009500273098F48091960090E067E070E0EF
:100BE00001D1820F911DFC01EE56F84F8491C9DFAF
:100BF000809195008F5F80939500E9CF8091970059
:100C00008F5F80939700D6CFDF91CF911F9108958A
:100C1000FF920F931F93CF93DF93F82E8A01D62F65
:100C2000D295DF70D05FC62FCF706D2F8C2FA0DFD5
:100C300080EB8F0D95DF1092940080919400F80165
:100C4000E80FF11D8081882311F180528093930079
:100C500010929200209192002A3098F48091930093
:100C600090E06AE070E0BED0820F911DFC01E85276
:100C7000FC4F849186DF809192008F5F8093920079
:100C8000E9CF809194008F5F80939400D6CF6D2F31
:100C90008C2F6EDF81EB8F0D63DF109294008091BB
:100CA0009400F801E80FF11D8081882311F1805232
:100CB0008093930010929200209192002A3098F431
:100CC0008091930090E06AE070E08CD0820F911DDB
:100CD000FC01E25EFF4F849154DF809192008F5FB0
:100CE00080939200E9CF809194008F5F809394006D
:100CF000D6CFDF91CF911F910F91FF900895CF93A1
:100D0000DF93C2DE8EEA2CDF6FE388EA31DF60E03A
:100D100083ED2EDF80E424DF81EA22DF88EC20DF10
:100D200062E18AED25DF6FEF81E822DF84EA18DFD8
:100D300086EA16DF60E885ED1BDF64E18DE818DFE9
:100D400062E080E215DF8FEA0BDFC0EB60E180E05C
:100D50000FDF8C2F05DFD0E080E013DFDF5FD038BE
:100D6000D9F7CF5FC83B91F7DF91CF910895CF932B
:100D7000DF9300D01F92CDB7DEB780E886BD16BCEA
:100D8000BEDF40E650E060E080E004DF4DE650E08A
:100D90006CE181E0FFDE40E650E060E082E038DFB9
:100DA0004BE750E060E084E033DF49E850E060E08A
:100DB00086E02EDF00E010E04AE0BE016F5F7F4F6B
:100DC000C80121D0AE014F5F5F4F6CE386E020DFAA
:100DD0000F5F1F4F083E83E0180771F740E950E0AE
:100DE00060E5E6CF0024552704C0080E591F880F80
:100DF000991F009729F076956795B8F37105B9F7B3
:100E0000802D952F0895BB274A3031F4992322F481
:100E1000BDE2909581959F4F01C0BB27FB015527EF
:100E2000AA27880F991FAA1FA41710F0A41B839547
:100E30005051B9F7A05DAA3308F0A95DA1930097BE
:100E400079F7B111B1931192CB0100C0DC01FC0123
:100E5000672F71917723E1F7329704C07C916D93EE
:100E600070836291AE17BF07C8F30895F894FFCF5F
:100E700048656C6C6F20576F726C642100696E203E
:100E8000612037783820666F6E7400696E203130CB
:100E900078313620666F6E7400436F756E743A0059
:020EA000200030
:00000001FF
